:100000000C9434000C943E000C943E000C943E0082
:100010000C943E000C943E000C943E000C943E0068
:100020000C943E000C943E000C943E000C943E0058
:100030000C943E000C943E000C943E000C943E0048
:100040000C943E000C943E000C943E000C943E0038
:100050000C943E000C943E000C943E000C943E0028
:100060000C943E000C943E0011241FBECFEFD8E04C
:10007000DEBFCDBF0E9440000C9480000C940000B5
:100080000E94520081E00E9471002FEF83ED90E307
:10009000215080409040E1F700C0000081E00E94C4
:1000A0005600F3CF84B1836084B9089591E0892725
:1000B00095B121E030E0082E02C0220F331F0A94D0
:1000C000E2F7922795B943B150E02423352302C0CB
:1000D000359527958A95E2F781E0232B09F480E096
:1000E000089545B191E0892721E030E0B90102C0CF
:1000F000660F771F8A95E2F7CB01842B85B90895A7
:04010000F894FFCFA1
:00000001FF
