S00D00006175746B6F2E73726563F3
S11300000C9434000C943E000C943E000C943E007E
S11300100C943E000C943E000C943E000C943E0064
S11300200C943E000C943E000C943E000C943E0054
S11300300C943E000C943E000C943E000C943E0044
S11300400C943E000C943E000C943E000C943E0034
S11300500C943E000C943E000C943E000C943E0024
S11300600C943E000C943E0011241FBECFEFD8E048
S1130070DEBFCDBF0E9440000C9454000C940000DD
S113008084B18C6C84B985B18C6C85B99CEC2FEFF0
S113009033ED80E3215030408040E1F700C00000A0
S10F00A085B1892785B9F3CFF894FFCF10
S9030000FC
